:100000000C9455000C947D000C947D000C947D00A4
:100010000C947D000C947D000C947D000C947D006C
:100020000C947D000C947D000C947D000C947D005C
:100030000C947D000C947D000C947D000C947D004C
:100040000C94B8010C947D000C94FE030C944104B4
:100050000C947D000C947D000C947D000C947D002C
:100060000C947D000C947D00010204081020408057
:1000700001020408102001020408102004040404F2
:100080000404040402020202020203030303030342
:1000900000000000250028002B00000000002400C4
:1000A00027002A004901FD04550111241FBECFEF8E
:1000B000D8E0DEBFCDBF11E0A0E0B1E0E8EEF5E1B1
:1000C00002C005900D92AC31B107D9F711E0ACE157
:1000D000B1E001C01D92A23EB107E1F710E0C8EA0D
:1000E000D0E004C02297FE010E948E0AC43AD107D4
:1000F000C9F70E9453050C94E70A0C94000060E0D5
:100100008FE00E94860260E081E10E94860240E06A
:1001100052EC61E070E083E391E00E947C04E091A6
:100120003301F09134010190F081E02D61E383E32C
:1001300091E009947F928F929F92AF92BF92CF925B
:10014000DF92EF92FF920F931F93CF93DF93782E5E
:1001500004EF11E0C12CD12C7601C0E0D0E0872D56
:100160000E94BF02009701F12196BC01882777FD0C
:100170008095982F0E945C094B015C01C701B60174
:100180000E945C096B017C01A5019401C501B401C9
:100190000E94E8099B01AC01C701B6010E94C50895
:1001A0000E9429096B017C010150110901151105FB
:1001B000B1F6209751F09E01442737FD4095542F0A
:1001C000C701B6010E946D0A03C020E030E0A9011A
:1001D000C901DF91CF911F910F91FF90EF90DF90B8
:1001E000CF90BF90AF909F908F907F9008950F9386
:1001F0001F93CF93DF93CDB7DEB728970FB6F89450
:10020000DEBF0FBECDBF8C01CB0160E070E00E946D
:100210009106FC01208168E071E0C80128870E94F6
:10022000CE052885213341F467E071E0C8010E94C2
:1002300006068FE090E009C02233D1F467E071E058
:10024000C8010E94060681E190E00E949A004AE0FF
:10025000BC01CE0101960E941E06BE016F5F7F4F5A
:10026000C8010E947706CE0101960E94600505C074
:1002700069E071E0C8010E940606C80128960FB621
:10028000F894DEBF0FBECDBFDF91CF911F910F91CC
:10029000089568E071E083E291E00E94CE0568E095
:1002A00071E08CE191E00C94CE058CE191E00E942C
:1002B000600583E291E00C946005CF93DF93CDB7A6
:1002C000DEB72E970FB6F894DEBF0FBECDBF68E045
:1002D00071E083E291E00E94060683E391E00E94D0
:1002E0006603892BB1F183E391E00E94660318163F
:1002F000190634F483E391E00E9493038A3019F5E0
:1003000063E271E0CE0108960E94FC05BE01685FC1
:100310007F4FCE0101960E94F700BE016F5F7F4FB5
:100320008CE191E00E94E505CE0101960E946005F6
:10033000CE0108960E9460056CE171E083E391E0D4
:100340000E94540306C0682F83E291E00E947E065B
:10035000CACF64E170E080E090E00E9425022E9612
:100360000FB6F894DEBF0FBECDBFDF91CF910895D9
:100370001F920F920FB60F9211242F933F938F93DA
:100380009F93AF93BF9380912B0190912C01A091EB
:100390002D01B0912E0130912A0123E0230F2D373A
:1003A00020F40196A11DB11D05C026E8230F029679
:1003B000A11DB11D20932A0180932B0190932C0144
:1003C000A0932D01B0932E0180912F0190913001C7
:1003D000A0913101B09132010196A11DB11D809310
:1003E0002F0190933001A0933101B0933201BF915E
:1003F000AF919F918F913F912F910F900FBE0F90D2
:100400001F9018953FB7F89480912F01909130017B
:10041000A0913101B091320126B5A89B05C02F3FB4
:1004200019F00196A11DB11D3FBF6627782F892FB6
:100430009A2F620F711D811D911D42E0660F771F7B
:10044000881F991F4A95D1F70895CF92DF92EF92B6
:10045000FF92CF93DF936B017C010E940202EB01BC
:10046000C114D104E104F10479F00E9402026C1B72
:100470007D0B683E7340A0F381E0C81AD108E10803
:10048000F108C851DC4FECCFDF91CF91FF90EF9096
:10049000DF90CF900895789484B5826084BD84B550
:1004A000816084BD85B5826085BD85B5816085BD6F
:1004B000EEE6F0E0808181608083E1E8F0E0108288
:1004C000808182608083808181608083E0E8F0E0C9
:1004D000808181608083E1EBF0E0808184608083B3
:1004E000E0EBF0E0808181608083EAE7F0E08081EA
:1004F000846080838081826080838081816080834A
:100500008081806880831092C1000895CF93DF932B
:1005100090E0FC01E859FF4F2491FC01E458FF4FA3
:100520008491882349F190E0880F991FFC01E656D9
:10053000FF4FA591B49180579F4FFC01C591D49175
:100540009FB7611108C0F8948C91209582238C93F9
:10055000888182230AC0623051F4F8948C91322F42
:10056000309583238C938881822B888304C0F894F0
:100570008C91822B8C939FBFDF91CF9108958E3009
:1005800008F08E5087702091000190E4299F90011F
:100590001124822B80937C0080917A008064809368
:1005A0007A0080917A0086FDFCCF809178002091BE
:1005B000790090E0922B0895CF92DF92EF92FF9214
:1005C0000F931F93CF93DF936C017A01EB01E60E3B
:1005D000F71E00E010E0CE15DF0561F06991D6014D
:1005E000ED91FC910190F081E02DC6010995080F75
:1005F000191FF1CFC801DF91CF911F910F91FF908B
:10060000EF90DF90CF900895AF92BF92CF92DF929C
:10061000EF92FF920F931F93CF93DF937C016B01B7
:10062000C0E0D0E000E010E0D60114968D919C91DE
:100630001597C817D90788F4D701ED91FC91A080D0
:10064000B180BE01C6010E94A306682FC701F50153
:100650000995080F191F2196E7CFC801DF91CF91A7
:100660001F910F91FF90EF90DF90CF90BF90AF90D0
:100670000895DC01ED91FC910190F081E02D099449
:100680000F931F93CF93DF93EC016DE00E9439032A
:100690008C016AE0CE010E943903800F911FDF9127
:1006A000CF911F910F9108950F931F93CF93DF93D5
:1006B000EC010E9404038C01CE010E944003800FD4
:1006C000911FDF91CF911F910F910895FC01248517
:1006D0003585F901E05CFF4F80819181F901EE5B86
:1006E000FF4F20813181821B930B8F7399270895CF
:1006F000FC0184859585FC01E05CFF4F40815181C0
:10070000FC01EE5BFF4F208131814217530741F01E
:100710000190F081E02DE80FF91F808190E00895AD
:100720008FEF9FEF0895FC0184859585FC01E05CC7
:10073000FF4F40815181FC01EE5BFF4F20813181F1
:100740004217530779F0A081B181A80FB91F8C918E
:10075000208131812F5F3F4F2F73332731832083D7
:1007600090E008958FEF9FEF0895FC0181A1882309
:1007700029F0A489B5898C9186FFFBCF11A2089539
:10078000CF93DF93FC0126853785D901A05CBF4F4D
:100790008D919C91119701968F739927E901CE5BFA
:1007A000DF4F4881598184179507D9F30D90BC918B
:1007B000A02DA20FB31F6C93A685B785A05CBF4F79
:1007C00011969C938E93A689B7892C9181E090E035
:1007D000078C02C0880F991F0A94E2F7282B2C93EC
:1007E00081E081A30488F589E02D80818064808385
:1007F00081E090E0DF91CF91089508951F920F92CC
:100800000FB60F9211242F933F934F938F939F9383
:10081000EF93FF938091C00082FD1CC04091C60001
:100820008091D9019091DA0101968F7399272091D7
:10083000DB013091DC018217930771F0E091D9015F
:10084000F091DA01E756FE4F40839093DA018093EE
:10085000D90102C08091C600FF91EF919F918F91C5
:100860004F913F912F910F900FBE0F901F901895B1
:1008700083E391E00E946603892B11F00C94FD0341
:1008800008951F920F920FB60F9211242F933F934A
:100890008F939F93EF93FF93209195013091960151
:1008A00080919701909198012817390731F4809130
:1008B000C1008F7D8093C10014C0E0919701F09139
:1008C0009801EB5AFE4F20818091970190919801F9
:1008D00001968F73992790939801809397012093A5
:1008E000C600FF91EF919F918F913F912F910F90B3
:1008F0000FBE0F901F901895CF92DF92EF92FF924C
:10090000CF93DF93EC016A017B01411581EE58071B
:1009100061057105F9F0EC89FD8981E090E008A09E
:1009200002C0880F991F0A94E2F7808360E079E0A3
:100930008DE390E0A70196010E944B0A21503109F6
:10094000410951095695479537952795211580E11D
:10095000380798F0EC89FD89108260E874E88EE130
:1009600090E0A70196010E944B0A215031094109EC
:1009700051095695479537952795E889F989308328
:10098000EA89FB89208319A2EE89FF89408181E0F1
:1009900090E09C010C8C02C0220F331F0A94E2F7F6
:1009A000422B4083EE89FF8940819C010D8C02C05F
:1009B000220F331F0A94E2F7422B4083EE89FF890E
:1009C00040819C010E8C02C0220F331F0A94E2F773
:1009D000422B4083EE89FF8920810F8C02C0880F53
:1009E000991F0A94E2F7809582238083DF91CF914B
:1009F000FF90EF90DF90CF90089510923601109203
:100A0000350188EE93E0A0E0B0E080933701909349
:100A10003801A0933901B0933A018FE091E09093AF
:100A200034018093330189E991E0909340018093F0
:100A30003F0185E591E0909342018093410185EC6F
:100A400090E0909344018093430184EC90E0909374
:100A500046018093450180EC90E09093480180939B
:100A6000470181EC90E090934A018093490182EC28
:100A700090E090934C0180934B0186EC90E0909332
:100A80004E0180934D0184E080934F0183E0809379
:100A9000500187E08093510185E08093520181E00D
:100AA0008093530108950E944B020E947F00C8E387
:100AB000D4E00E945D012097E1F30E943804F9CF51
:100AC000FC01808191810C944C07CF93DF93EC0162
:100AD00088819981009711F00E944C071982188231
:100AE0001D821C821B821A82DF91CF9108950F9381
:100AF0001F93CF93DF93EC018B016F5F7F4F888152
:100B000099810E94DB07009731F0998388831B83CA
:100B10000A8381E001C080E0DF91CF911F910F91A6
:100B20000895CF93DF93EC0188819981892B29F077
:100B30008A819B818617970760F4CE010E94770512
:100B4000882341F08C819D81892B19F4E881F981FA
:100B5000108281E0DF91CF910895EF92FF920F9381
:100B60001F93CF93DF93EC017B018A01BA010E94AE
:100B70009105811104C0CE010E94650507C01D8347
:100B80000C83B701888199810E949B0ACE01DF9175
:100B9000CF911F910F91FF90EF900895FC0111826A
:100BA00010821382128215821482168261157105D9
:100BB00059F0FB0101900020E9F7AF0141505109C4
:100BC000461B570B0C94AD050895CF93DF93EC01B2
:100BD000FB018617970761F06081718161157105CE
:100BE00029F0448155810E94AD0502C00E9465052F
:100BF000CE01DF91CF910895FC0111821082138202
:100C000012821582148216820C94E505CF93DF932D
:100C1000EC016115710561F0FB0101900020E9F71D
:100C2000AF0141505109461B570B0E94AD0502C050
:100C30000E946505CE01DF91CF9108950F931F9318
:100C4000CF93DF93CDB7DEB762970FB6F894DEBFD0
:100C50000FBECDBF8C01CB01F8011182108213822F
:100C6000128215821482168250E0BE016F5F7F4FA0
:100C70000E94A20ABE016F5F7F4FC8010E94060654
:100C800062960FB6F894DEBF0FBECDBFDF91CF9155
:100C90001F910F910895EF92FF920F931F93CF939F
:100CA000DF93EC017B010C811D816115710511F44D
:100CB00080E016C04115510591F0040F151FB801D1
:100CC0000E9491058823A1F3288139818C819D811F
:100CD000B701820F931F0E949B0A1D830C8381E042
:100CE000DF91CF911F910F91FF90EF900895FB013D
:100CF00044815581608171810C944B06CF93DF93C1
:100D000000D0CDB7DEB769831A8241E050E0BE0162
:100D10006F5F7F4F0E944B060F900F90DF91CF9136
:100D20000895FC01848195816817790720F48081FA
:100D30009181009729F41092DD018DED91E00895E5
:100D4000860F971F0895FC01248135816217730770
:100D500048F480819181009729F0FC01E60FF71F8C
:100D60008081089580E00895CF93DF9382309105CC
:100D700010F482E090E0E091E001F091E10120E0E8
:100D800030E0A0E0B0E0309739F140815181481760
:100D90005907B8F04817590771F482819381109769
:100DA00029F013969C938E9312972CC09093E10197
:100DB0008093E00127C02115310531F04217530718
:100DC00018F0A901DB0101C0EF019A01BD01DF01AB
:100DD0000280F381E02DD7CF21153105F9F0281BD2
:100DE000390B2430310580F48A819B8161157105AE
:100DF00021F0FB019383828304C09093E1018093EF
:100E0000E001FE01329644C0FE01E20FF31F819320
:100E1000919322503109398328833AC02091DE0111
:100E20003091DF01232B41F4209103013091040123
:100E30003093DF012093DE01209101013091020106
:100E40002115310541F42DB73EB740910501509170
:100E50000601241B350BE091DE01F091DF01E21762
:100E6000F307A0F42E1B3F0B2817390778F0AC01CD
:100E70004E5F5F4F2417350748F04E0F5F1F5093AA
:100E8000DF014093DE018193919302C0E0E0F0E046
:100E9000CF01DF91CF910895CF93DF93009709F4AD
:100EA00087C0FC01329713821282C091E001D09179
:100EB000E101209781F420813181280F391F809131
:100EC000DE019091DF018217930779F5F093DF013E
:100ED000E093DE016DC0DE0120E030E0AE17BF0719
:100EE00050F412964D915C9113979D014115510557
:100EF00009F1DA01F3CFB383A28340815181840FDA
:100F0000951F8A179B0771F48D919C911197840FFF
:100F1000951F02969183808312968D919C911397D1
:100F2000938382832115310529F4F093E101E09345
:100F3000E0013EC0D9011396FC93EE9312974D91B8
:100F40005D91A40FB51FEA17FB0779F480819181A9
:100F5000840F951F0296D90111969C938E938281DE
:100F6000938113969C938E931297E0E0F0E08A8130
:100F70009B81009719F0FE01EC01F9CFCE0102969A
:100F800028813981820F931F2091DE013091DF018A
:100F90002817390769F4309729F41092E10110926B
:100FA000E00102C013821282D093DF01C093DE0100
:100FB000DF91CF9108956F927F928F929F92AF921F
:100FC000BF92CF92DF92EF92FF920F931F93CF9336
:100FD000DF93EC01CB01209781F4DF91CF911F913A
:100FE0000F91FF90EF90DF90CF90BF90AF909F90C8
:100FF0008F907F906F900C94B406FE01E60FF71F60
:101000009E0122503109E217F30708F4ACC0D90160
:101010000D911C91119706171707B8F005301105AF
:1010200008F49FC0A801445051094617570708F417
:1010300098C002501109061B170B019311936D9371
:101040007C93CF010E944C078CC05B01A01AB10AAF
:101050004E01800E911EA091E001B091E101612C42
:10106000712C60E070E0109709F449C0A815B9052B
:10107000C9F5ED90FC901197670142E0C40ED11CB8
:10108000CA14DB0478F147018A189B08640142E026
:10109000C40ED11C1296BC9012971396AC91B5E079
:1010A000CB16D10440F0B282A38391828082D90111
:1010B0008D939C9309C00E5F1F4F0E0D1F1DF901EC
:1010C00011830083EB2DFA2F6115710531F0DB01DF
:1010D0001396FC93EE93129744C0F093E101E093D2
:1010E000E0013FC06D917C9111976616770608F478
:1010F0003B01BD0112960D90BC91A02DB4CF609123
:10110000DE017091DF0168157905E9F4681679064A
:10111000D0F440910101509102014115510541F473
:101120004DB75EB76091050170910601461B570BE4
:10113000E417F507C0F4F093DF01E093DE01F90155
:10114000918380830EC00E94B4067C01009759F001
:10115000A801BE010E94920ACE010E944C07C7015D
:1011600004C0CE0102C080E090E0DF91CF911F91DA
:101170000F91FF90EF90DF90CF90BF90AF909F9036
:101180008F907F906F9008955058BB27AA270ED05C
:10119000E5C0D6D030F0DBD020F031F49F3F11F421
:1011A0001EF4CBC00EF4E095E7FBC1C0E92FE7D0F9
:1011B00080F3BA17620773078407950718F071F474
:1011C0009EF5FFC00EF4E0950B2EBA2FA02D0B015B
:1011D000B90190010C01CA01A0011124FF27591B7C
:1011E00099F0593F50F4503E68F11A16F040A22F82
:1011F000232F342F4427585FF3CF469537952795F3
:10120000A795F0405395C9F77EF41F16BA0B620BF1
:10121000730B840BBAF09150A1F0FF0FBB1F661F38
:10122000771F881FC2F70EC0BA0F621F731F841F7B
:1012300048F4879577956795B795F7959E3F08F0A1
:10124000B3CF9395880F08F09927EE0F9795879560
:10125000089504D06894B111B5C0089598D088F06D
:101260009F5790F0B92F9927B751A0F0D1F0660F92
:10127000771F881F991F1AF0BA95C9F712C0B130AD
:1012800081F09FD0B1E008959CC0672F782F882708
:10129000B85F39F0B93FCCF3869577956795B395EC
:1012A000D9F73EF490958095709561957F4F8F4F5B
:1012B0009F4F0895E89409C097FB3EF49095809560
:1012C000709561957F4F8F4F9F4F9923A9F0F92F0C
:1012D00096E9BB279395F695879577956795B7958A
:1012E000F111F8CFFAF4BB0F11F460FF1BC06F5F70
:1012F0007F4F8F4F9F4F16C0882311F096E911C082
:10130000772321F09EE8872F762F05C0662371F0A2
:1013100096E8862F70E060E02AF09A95660F771FB6
:10132000881FDAF7880F9695879597F9089597F9AA
:101330009F6780E870E060E008959FEF80EC08957B
:1013400000240A94161617061806090608950024A4
:101350000A9412161306140605060895092E03941E
:10136000000C11F4882352F0BB0F40F4BF2B11F492
:1013700060FF04C06F5F7F4F8F4F9F4F089557FDF1
:101380009058440F551F59F05F3F71F04795880FF3
:1013900097FB991F61F09F3F79F08795089512168A
:1013A00013061406551FF2CF4695F1DF08C0161636
:1013B00017061806991FF1CF8695710561050894E7
:1013C0000895E894BB2766277727CB0197F90895FE
:1013D0000BD0C4CFB5DF28F0BADF18F0952309F0A1
:1013E000A6CFABCF1124EECFCADFA0F3959FD1F3E8
:1013F000950F50E0551F629FF001729FBB27F00DC3
:10140000B11D639FAA27F00DB11DAA1F649F662717
:10141000B00DA11D661F829F2227B00DA11D621F66
:10142000739FB00DA11D621F839FA00D611D221F20
:10143000749F3327A00D611D231F849F600D211D04
:10144000822F762F6A2F11249F5750408AF0E1F0A7
:1014500088234AF0EE0FFF1FBB1F661F771F881FF0
:1014600091505040A9F79E3F510570F060CFAACF30
:101470005F3FECF3983EDCF3869577956795B795DB
:10148000F795E7959F5FC1F7FE2B880F911D969505
:10149000879597F90895A1E21A2EAA1BBB1BFD019F
:1014A0000DC0AA1FBB1FEE1FFF1FA217B307E40743
:1014B000F50720F0A21BB30BE40BF50B661F771F9B
:1014C000881F991F1A9469F760957095809590957B
:1014D0009B01AC01BD01CF010895052E97FB1EF4C1
:1014E00000940E94840A57FD07D00E944B0A07FC13
:1014F00003D04EF40C94840A509540953095219574
:101500003F4F4F4F5F4F089590958095709561952F
:101510007F4F8F4F9F4F0895EE0FFF1F0590F4915F
:10152000E02D0994FB01DC0102C001900D924150B5
:101530005040D8F70895FB01DC0101900D92002086
:10154000E1F70895FB019F01E8944230C4F0453271
:10155000B4F44A3029F497FB1EF4909581959F4F7F
:10156000642F77270E94D30A805D8A330CF0895D4F
:101570008193CB010097A1F716F45DE2519310829D
:10158000C9010C94C30ADC01FC01672F7191772318
:10159000E1F7329704C07C916D9370836291AE172E
:1015A000BF07C8F30895AA1BBB1B51E107C0AA1FC0
:1015B000BB1FA617B70710F0A61BB70B881F991FF4
:1015C0005A95A9F780959095BC01CD01089510E03A
:1015D000C8EAD0E004C0FE010E948E0A2296CA3AF0
:0815E000D107C9F7F894FFCF11
:1015E800010000E201800064006E0000000000C0FD
:0C15F80003DC02660393037803B50300D4
:00000001FF
